{
  "_format": "hh-sol-artifact-1",
  "contractName": "todo",
  "sourceName": "contracts/todo.sol",
  "abi": [
    {
      "anonymous": false,
      "inputs": [
        {
          "indexed": false,
          "internalType": "address",
          "name": "recepient",
          "type": "address"
        },
        {
          "indexed": false,
          "internalType": "uint256",
          "name": "taskid",
          "type": "uint256"
        }
      ],
      "name": "AddTask",
      "type": "event"
    },
    {
      "anonymous": false,
      "inputs": [
        {
          "indexed": false,
          "internalType": "uint256",
          "name": "taskId",
          "type": "uint256"
        },
        {
          "indexed": false,
          "internalType": "bool",
          "name": "deleted",
          "type": "bool"
        }
      ],
      "name": "DeleteTask",
      "type": "event"
    },
    {
      "inputs": [
        {
          "internalType": "string",
          "name": "taskText",
          "type": "string"
        },
        {
          "internalType": "bool",
          "name": "isDeleted",
          "type": "bool"
        }
      ],
      "name": "addTask",
      "outputs": [],
      "stateMutability": "nonpayable",
      "type": "function"
    },
    {
      "inputs": [
        {
          "internalType": "uint256",
          "name": "taskId",
          "type": "uint256"
        }
      ],
      "name": "deleteTask",
      "outputs": [],
      "stateMutability": "nonpayable",
      "type": "function"
    },
    {
      "inputs": [],
      "name": "getMyTasks",
      "outputs": [
        {
          "components": [
            {
              "internalType": "uint256",
              "name": "id",
              "type": "uint256"
            },
            {
              "internalType": "string",
              "name": "taskText",
              "type": "string"
            },
            {
              "internalType": "bool",
              "name": "deleted",
              "type": "bool"
            }
          ],
          "internalType": "struct todo.Task[]",
          "name": "",
          "type": "tuple[]"
        }
      ],
      "stateMutability": "view",
      "type": "function"
    }
  ],
  "bytecode": "0x608060405234801561001057600080fd5b50610ea4806100206000396000f3fe608060405234801561001057600080fd5b50600436106100415760003560e01c806320df458114610046578063560f3192146100625780636e13f8181461007e575b600080fd5b610060600480360381019061005b919061072c565b61009c565b005b61007c600480360381019061007791906107be565b6101bf565b005b610086610281565b604051610093919061099a565b60405180910390f35b60008080549050905060006040518060600160405280838152602001858152602001841515815250908060018154018082558091505060019003906000526020600020906003020160009091909190915060008201518160000155602082015181600101908161010c9190610bc8565b5060408201518160020160006101000a81548160ff0219169083151502179055505050336001600083815260200190815260200160002060006101000a81548173ffffffffffffffffffffffffffffffffffffffff021916908373ffffffffffffffffffffffffffffffffffffffff1602179055507f1f54e1ba1832d428fbd7e7792beaf62b1fc5a382c207ffd614209c1413e94fda33826040516101b2929190610cea565b60405180910390a1505050565b6000805490508110610206576040517f08c379a00000000000000000000000000000000000000000000000000000000081526004016101fd90610d70565b60405180910390fd5b60016000828154811061021c5761021b610d90565b5b906000526020600020906003020160020160006101000a81548160ff0219169083151502179055507ff88a35c3d2016c409a46570b994a17b408dbc83c14a03f521512d50b85386d06816001604051610276929190610dce565b60405180910390a150565b60606000808054905067ffffffffffffffff8111156102a3576102a26105c9565b5b6040519080825280602002602001820160405280156102dc57816020015b6102c9610577565b8152602001906001900390816102c15790505b5090506000805b6000805490508110156104bd573373ffffffffffffffffffffffffffffffffffffffff166001600083815260200190815260200160002060009054906101000a900473ffffffffffffffffffffffffffffffffffffffff1673ffffffffffffffffffffffffffffffffffffffff161480156103945750600015156000828154811061037157610370610d90565b5b906000526020600020906003020160020160009054906101000a900460ff161515145b156104aa57600081815481106103ad576103ac610d90565b5b9060005260206000209060030201604051806060016040529081600082015481526020016001820180546103e0906109eb565b80601f016020809104026020016040519081016040528092919081815260200182805461040c906109eb565b80156104595780601f1061042e57610100808354040283529160200191610459565b820191906000526020600020905b81548152906001019060200180831161043c57829003601f168201915b505050505081526020016002820160009054906101000a900460ff1615151515815250508383815181106104905761048f610d90565b5b602002602001018190525081806104a690610e26565b9250505b80806104b590610e26565b9150506102e3565b5060008167ffffffffffffffff8111156104da576104d96105c9565b5b60405190808252806020026020018201604052801561051357816020015b610500610577565b8152602001906001900390816104f85790505b50905060005b8281101561056d5783818151811061053457610533610d90565b5b602002602001015182828151811061054f5761054e610d90565b5b6020026020010181905250808061056590610e26565b915050610519565b5080935050505090565b604051806060016040528060008152602001606081526020016000151581525090565b6000604051905090565b600080fd5b600080fd5b600080fd5b600080fd5b6000601f19601f8301169050919050565b7f4e487b7100000000000000000000000000000000000000000000000000000000600052604160045260246000fd5b610601826105b8565b810181811067ffffffffffffffff821117156106205761061f6105c9565b5b80604052505050565b600061063361059a565b905061063f82826105f8565b919050565b600067ffffffffffffffff82111561065f5761065e6105c9565b5b610668826105b8565b9050602081019050919050565b82818337600083830152505050565b600061069761069284610644565b610629565b9050828152602081018484840111156106b3576106b26105b3565b5b6106be848285610675565b509392505050565b600082601f8301126106db576106da6105ae565b5b81356106eb848260208601610684565b91505092915050565b60008115159050919050565b610709816106f4565b811461071457600080fd5b50565b60008135905061072681610700565b92915050565b60008060408385031215610743576107426105a4565b5b600083013567ffffffffffffffff811115610761576107606105a9565b5b61076d858286016106c6565b925050602061077e85828601610717565b9150509250929050565b6000819050919050565b61079b81610788565b81146107a657600080fd5b50565b6000813590506107b881610792565b92915050565b6000602082840312156107d4576107d36105a4565b5b60006107e2848285016107a9565b91505092915050565b600081519050919050565b600082825260208201905092915050565b6000819050602082019050919050565b61082081610788565b82525050565b600081519050919050565b600082825260208201905092915050565b60005b83811015610860578082015181840152602081019050610845565b60008484015250505050565b600061087782610826565b6108818185610831565b9350610891818560208601610842565b61089a816105b8565b840191505092915050565b6108ae816106f4565b82525050565b60006060830160008301516108cc6000860182610817565b50602083015184820360208601526108e4828261086c565b91505060408301516108f960408601826108a5565b508091505092915050565b600061091083836108b4565b905092915050565b6000602082019050919050565b6000610930826107eb565b61093a81856107f6565b93508360208202850161094c85610807565b8060005b8581101561098857848403895281516109698582610904565b945061097483610918565b925060208a01995050600181019050610950565b50829750879550505050505092915050565b600060208201905081810360008301526109b48184610925565b905092915050565b7f4e487b7100000000000000000000000000000000000000000000000000000000600052602260045260246000fd5b60006002820490506001821680610a0357607f821691505b602082108103610a1657610a156109bc565b5b50919050565b60008190508160005260206000209050919050565b60006020601f8301049050919050565b600082821b905092915050565b600060088302610a7e7fffffffffffffffffffffffffffffffffffffffffffffffffffffffffffffffff82610a41565b610a888683610a41565b95508019841693508086168417925050509392505050565b6000819050919050565b6000610ac5610ac0610abb84610788565b610aa0565b610788565b9050919050565b6000819050919050565b610adf83610aaa565b610af3610aeb82610acc565b848454610a4e565b825550505050565b600090565b610b08610afb565b610b13818484610ad6565b505050565b5b81811015610b3757610b2c600082610b00565b600181019050610b19565b5050565b601f821115610b7c57610b4d81610a1c565b610b5684610a31565b81016020851015610b65578190505b610b79610b7185610a31565b830182610b18565b50505b505050565b600082821c905092915050565b6000610b9f60001984600802610b81565b1980831691505092915050565b6000610bb88383610b8e565b9150826002028217905092915050565b610bd182610826565b67ffffffffffffffff811115610bea57610be96105c9565b5b610bf482546109eb565b610bff828285610b3b565b600060209050601f831160018114610c325760008415610c20578287015190505b610c2a8582610bac565b865550610c92565b601f198416610c4086610a1c565b60005b82811015610c6857848901518255600182019150602085019450602081019050610c43565b86831015610c855784890151610c81601f891682610b8e565b8355505b6001600288020188555050505b505050505050565b600073ffffffffffffffffffffffffffffffffffffffff82169050919050565b6000610cc582610c9a565b9050919050565b610cd581610cba565b82525050565b610ce481610788565b82525050565b6000604082019050610cff6000830185610ccc565b610d0c6020830184610cdb565b9392505050565b600082825260208201905092915050565b7f496e646578206f7574206f6620626f756e647300000000000000000000000000600082015250565b6000610d5a601383610d13565b9150610d6582610d24565b602082019050919050565b60006020820190508181036000830152610d8981610d4d565b9050919050565b7f4e487b7100000000000000000000000000000000000000000000000000000000600052603260045260246000fd5b610dc8816106f4565b82525050565b6000604082019050610de36000830185610cdb565b610df06020830184610dbf565b9392505050565b7f4e487b7100000000000000000000000000000000000000000000000000000000600052601160045260246000fd5b6000610e3182610788565b91507fffffffffffffffffffffffffffffffffffffffffffffffffffffffffffffffff8203610e6357610e62610df7565b5b60018201905091905056fea264697066735822122091de374a407bee7c62c13e558b9da4f8202032a6c0f1b5c9c3008001f01627cd64736f6c63430008120033",
  "linkReferences": {},
  "deployedLinkReferences": {}
}